:020000040800F2
:100000000080012085030008D5030008D5030008FF
:10001000D5030008D5030008D50300080000000040
:10002000000000000000000000000000D5030008F0
:100030000000000000000000D5030008E9030008EC
:10004000D5030008D5030008D5030008D503000830
:10005000D5030008D5030008D5030008D503000820
:10006000D5030008D5030008D5030008D503000810
:10007000D5030008D5030008D5030008D503000800
:10008000D5030008D5030008D5030008D5030008F0
:10009000D5030008D5030008D5030008D5030008E0
:1000A000D5030008D5030008D5030008D5030008D0
:1000B000D5030008D5030008D5030008D5030008C0
:1000C000D5030008D5030008D5030008D5030008B0
:1000D000D5030008D5030008D5030008D5030008A0
:1000E000D5030008D5030008D5030008D503000890
:1000F000D5030008D5030008D5030008D503000880
:10010000D5030008D5030008D5030008D50300086F
:10011000D5030008D5030008D5030008D50300085F
:10012000D5030008D5030008D5030008D50300084F
:10013000D5030008D5030008D5030008D50300083F
:10014000D5030008D5030008D5030008D50300082F
:10015000D5030008D5030008D5030008D50300081F
:10016000D5030008D5030008D5030008D50300080F
:10017000D5030008D5030008D5030008D5030008FF
:04018000D50300089B
:1001840010B5054C237833B9044B13B10448AFF3CD
:1001940000800123237010BD040000200000000033
:1001A4005804000808B5034B1BB103490348AFF3D7
:1001B400008008BD0000000008000020580400086A
:1001C40070B50D4D0D4C641BA4100026A64209D138
:1001D4000B4D0C4C00F03EF9641BA4100026A64203
:1001E40005D170BD55F8043B98470136EEE755F844
:1001F400043B98470136F2E77004000870040008D5
:10020400700400087804000870477047024B13B16B
:10021400024800F005B870470000000031020008F1
:10022400002301461A46184600F014B838B5074DA5
:10023400074C641BA4101CB9BDE8384000F010B989
:10024400013C55F824309847F5E700BF78040008CE
:100254007C0400082DE9F047DFF874A00646DAF8BC
:10026400000098460F469146FFF7CEFF164B1C68D8
:100274000CB9164C1C606568DAF800001F2D05DD0A
:10028400FFF7C3FF4FF0FF30BDE8F0879EB104EBEA
:1002940085010122C1F88890D4F88831AA4013431B
:1002A400C4F88831022EC1F8088102BFD4F88C3119
:1002B4001343C4F88C316B1C0235636044F8257019
:1002C400FFF7A3FF0020DFE7240000202800002020
:1002D4000000002084B001900023039303E000BFDA
:1002E400039B01330393019B4FF47A7202FB03F3E4
:1002F400039A9342F3D804B07047000008B507206E
:1003040000F068F805214FF0904000F073F81A4CA3
:100314000C21204600F06EF8184D0D21284600F0FF
:1003240083F80D21284600F087F80C21204600F0C0
:100334006EF805214FF0904000F069F86420FFF753
:10034400C9FF0D4C0C21204600F061F805214FF047
:10035400904000F062F86420FFF7BCFF0C212046B7
:1003640000F05BF805214FF0904000F050F8642055
:10037400FFF7B0FFDDE700BF0004004800080048B5
:100384000D488546AFF300800C480D490D4A002303
:1003940002E0D458C4500433C4188C42F9D30A4A36
:1003A4000A4C002301E013600432A242FBD3FFF79E
:1003B40007FFFFF7A3FFFEE70080012000000020F5
:1003C400040000207C04000804000020BC0100207C
:1003D400FEE70000024AD36C0343D364704700BFB6
:1003E40000100240024A136801331360704700BFD3
:1003F400B80100200368490003228A4023EA02036B
:100404000360036801228A40134303607047436911
:1004140001228A40134343617047436901228A40A1
:1004240023EA0203436170470368490003228A40B8
:1004340023EA020303607047C368490003228A4029
:1004440023EA0203C360C36801228A401343C360E2
:1004540070470000F8B500BFF8BC08BC9E46704762
:0C046400F8B500BFF8BC08BC9E4670470D
:0804700011020008A9010008B7
:0404780085010008F2
:04047C00200000203C
:040000050800038567
:00000001FF
